:020000040800F2
:10000000D81500205D010008ED040008E504000893
:10001000E904000885020008890A000800000000C1
:10002000000000000000000000000000B907000808
:10003000E10200080000000073010008B108000898
:1000400077010008770100087701000877010008B0
:1000500077010008770100087701000877010008A0
:100060007701000877010008770100087701000890
:100070007701000877010008770100087701000880
:100080007701000877010008770100087701000870
:100090007701000877010008770100087701000860
:1000A0007701000877010008770100087701000850
:1000B0007701000877010008770100087701000840
:1000C0007701000877010008770100087701000830
:1000D0007701000877010008770100087701000820
:1000E0007701000877010008770100087701000810
:1000F0007701000877010008770100087701000800
:1001000077010008770100087701000877010008EF
:1001100077010008770100087701000877010008DF
:1001200077010008770100087701000877010008CF
:1001300077010008770100087701000877010008BF
:100140007701000877010008DFF80CD000F04AF8CA
:1001500000480047A90E0008D8150020064880472F
:1001600006480047FEE7FEE7FEE7FEE7FEE7FEE79C
:10017000FEE7FEE7FEE7FEE7B508000849010008D4
:100180002DE9F05F0546002092469B4688460646CC
:10019000814640241BE0284641464746224600F05F
:1001A00042F853465A46C01A914110D31146184698
:1001B000224600F029F82D1A67EB01084F46224627
:1001C0000120002100F020F817EB00094E41201E0D
:1001D000A4F10104DFDC484631462A464346BDE827
:1001E000F09F0000064C074D06E0E06840F0010378
:1001F00094E8070098471034AC42F6D3FFF7A8FF05
:10020000900F0008B00F0008202A04DB203A00FA03
:1002100002F1002070479140C2F1200320FA03F35D
:10022000194390407047202A04DB203A21FA02F05B
:100230000021704721FA02F3D040C2F12002914020
:10024000084319467047000008B501460022009295
:100250000020044A0092009A0A440092009A106812
:1002600008BD00005028004008B500220092044A52
:100270000092009A02440092009A116008BD0000AA
:100280005028004000BFFEE700BF1348006820F080
:100290000070114908600846006840F0007008606E
:1002A00000BF0E48006820F4C0600C490860084692
:1002B000006840F48060086000BF0848006900F0F2
:1002C00002000028F9D100BF0448006900F00200D4
:1002D0000228F9D17047000020180040007000404B
:1002E00070470000F0B503460025002000240022DE
:1002F0000026E3E00F884FF0010C0CFA02FC07EA3D
:100300000C06002E6FD055008F68022F07D08F6823
:10031000122F04D08F6817B18F68032F25D102F0F8
:1003200008078FB1586A57074FEAD76C0F2707FAAB
:100330000CF7B8434FEA427C4FEADC6CCF6807FA0F
:100340000CF73843586210E0186A57074FEAD76C29
:100350000F2707FA0CF7B8434FEA427C4FEADC6CF0
:10036000CF6807FA0CF7384318621C680F7A07F059
:100370000F000327AF40BC4300FA05F73C431C6065
:10038000DC680F7907F003000327AF40BC4300FA95
:1003900005F73C43DC600F7A07F003076FB18F6805
:1003A000032F0AD0DC6A8F7807F003000327AF40E1
:1003B000BC4300FA05F73C43DC629868012797408C
:1003C000B843CF7807F001079740384398600F791A
:1003D000022F09D19F6A4FF0010C0CFA02FC47EA88
:1003E0000C079F620BE068E00F79012F07D19F692E
:1003F0004FF0010C0CFA02FC47EA0C079F618F6872
:10040000012F08D08F68022F05D08F68112F02D0DE
:100410008F68122F09D1586801279740B8430F7A87
:10042000C7F300179740384358608F6807F080572C
:10043000002F42D0244F386801279740B8438F6877
:1004400007F48037B7F5803F02D101279740384342
:100450001D4F38603F1D386801279740B8438F68AB
:1004600007F40037B7F5003F02D101279740384322
:10047000154F3F1D38603F1D386801279740B8432E
:100480008F6807F48017B7F5801F02D101279740C6
:1004900038430D4F083738603F1D386801279740B3
:1004A000B8438F6807F40017B7F5001F02D1012782
:1004B00097403843044F0C373860521C0F8817415F
:1004C000002F7FF417AFF0BD000401404FF6FF711D
:1004D00001800021C17081600F21C1600021017184
:1004E0008170704700BFFEE700BFFEE77047000065
:1004F000014908627047000000000E4210B5044632
:100500000121080700F034F81048006840F48070BA
:100510000E4908600E48006A20F00D000C49086280
:10052000012C02D0042C0ED106E00948006A40F0EC
:1005300001000749086207E00548006A40F005002D
:100540000349086200E000BF00BF10BD007000401A
:10055000001002400549096A21F44071034A116202
:100560001146096A01431162704700000010024001
:1005700029B1064AD2690243044BDA6104E0034A16
:10058000D2698243014BDA617047000000100240DB
:1005900029B1064A92690243044B9A6104E0034A76
:1005A00092698243014B9A6170470000001002403B
:1005B0000149086070470000800442420149086018
:1005C000704700003C044242F0B5002100BF002308
:1005D000002600240025484F7F68DFF820C107EA85
:1005E0000C03454F7F6807F48036434F7F6AC7F39B
:1005F000021503F000671FB9022707EB934304E0DD
:100600004FF4F877C7EB93477B1C66B93A4F3F6CC2
:1006100007F001071FB13A4F03FB07F20FE0394F14
:1006200003FB07F20BE0344F7F6807F400371FB17C
:10063000354F03FB07F202E0314F03FB07F22E4F69
:100640003F6C07F0020707B152082B4F7F6807F095
:100650000C0131B1042909D008290AD00C290DD187
:100660000AE02A4F57F8257007600CE0254F076015
:1006700009E0234F076006E0026004E0234F57F8CB
:100680002570076000BF00BF1B4F7F6807F0F001B7
:1006900009091F4F7C5C0768E7404760164F7F6879
:1006A00007F4E061090A1A4F7C5C4768E7408760FD
:1006B000114F7F6807F46051C90A154F7C5C476889
:1006C000E740C7600C4FFF6A07F00F01114F7C5CD9
:1006D0004768B7FBF4F74761074FFF6A07F4F87103
:1006E000090901F00F07DFF830C03CF81740B2FBF2
:1006F000F4F70761F0BD00000010024000003C0864
:1007000000127A000024F40000093D00740F000874
:10071000340F0008440F0008540F000810B50146BC
:100720000022002300204A11012A02D1094C23682B
:1007300006E0022A02D1074C236A01E0054C636AF5
:1007400001F01F02012494401C400CB1012000E084
:10075000002010BD0010024008B5002200920020C9
:100760000021CA22134B1A6053221A60114A183A08
:10077000126822F020020F4B183B1A6000BF0D4A8E
:10078000183A126802F02001009A521C0092009A56
:10079000B2F5004F01D00029F1D0064A183A12688C
:1007A00002F020020AB1012000E00020FF22014BEC
:1007B0001A6008BD242800407047000030B50022B0
:1007C0000023002500243548006840F48030334978
:1007D000086000BF31480068C0F340446D1C14B984
:1007E000B5F5005FF6D12D480068C0F340441CB950
:1007F0002B482C49086030BDFFF746FD2A480068A9
:1008000020F00300284908600846006840F0010015
:10081000086022484068214948600846406840F422
:10082000005048600846406840F4A06048600846B0
:1008300040681E490840194948600846006C20F08D
:10084000010008640846426842F48032036C42F4B6
:10085000003200BF42F4601242600364006840F05E
:100860008070086000BF0D48006800F0007000282C
:10087000F9D00A48406820F003000849486008465B
:10088000406840F00300486000BF0448406800F042
:100890000C000C28F9D100BFADE7000000100240A9
:1008A00000093D000000002000200240FFFFC0F7CB
:1008B0007047000010B52F48006840F470002D49C3
:1008C00008602D48406A40F004002B494862084601
:1008D00040682A4908402849486008460068284975
:1008E0000840254908600846006820F48020086018
:1008F00008464068234908401F4948600020C862F4
:100900004FF4605008630020486308641E48886004
:100910000846C06940F08050C8611C48006800F477
:100920008060B0F5806F0CD100BF1948006820F0DE
:100930000070174908600846006840F000700860C1
:1009400000BF1448006840F0900012490860084653
:10095000006800F4807020B10846006820F4007040
:100960000860FFF72BFF4FF00060024980390860F4
:1009700010BD000088ED00E00010024000C0FFF84C
:10098000FFFFF6FEFFFF00070080BF04007000407D
:10099000201800400020024021B1828942F4005218
:1009A000828104E082894DF6FF731A40828170478C
:1009B00002460020B1F5007F00D100BF13880B4034
:1009C0000BB1012000E00020704700002DE9F04746
:1009D00086B005460F460024A24600BF00BF002691
:1009E000B88900B100BF2E462C8A4CF6FF70044037
:1009F000F88804432C82AC894EF6F3100440B88882
:100A000039890843798908430443AC81AC8A4FF69D
:100A1000FF400440B8890443AC826846FFF7D4FD28
:100A20001448864205D01448864202D013488642B4
:100A300002D1DDF80CA001E0DDF808A00AEBCA0045
:100A400000EB0A1039688900B0FBF1F86420B8FBAC
:100A5000F0F004012009642101FB1089322000EB31
:100A60000910B0FBF1F000F00F0004432C8106B038
:100A7000BDE8F087003801400050014000540140BB
:100A8000C1F308028280704700BFFEE710B5012164
:100A90000807FFF76DFD0120FFF72AFD0020FFF793
:100AA0008DFD0020FFF784FD0120FFF727FD00BF2B
:100AB0004120FFF733FE0028FAD04FF48070FFF793
:100AC00049FD0120FFF77AFDFFF746FE10BD00004B
:100AD0000FB4054B10B503A9044A029800F018F8AA
:100AE00010BC5DF814FB0000D10D00088000002050
:100AF00002E008C8121F08C1002AFAD170477047E7
:100B0000002001E001C1121F002AFBD17047000044
:100B10002DE9FF4F8DB09B460F460446002606E0A8
:100B200025280BD05A460F999047641C761C2078D4
:100B30000028F5D111B03046BDE8F08F0025A84659
:100B40000122984900E0054314F8013F203B02FAD6
:100B500003F00842F7D120782E2817D114F8010F9E
:100B600045F004052A280ED06FF02F022078A0F15E
:100B7000300109290AD808EB880102EB410100EB9A
:100B80000108641CF2E757F8048B641C20786C2879
:100B90000DD004DC4C2812D06A2811D104E074284E
:100BA0000DD07A280CD10AE045F4001507E06178F1
:100BB00045F48015814202D1641C05F58015641C42
:100BC0002278692A45D008DC002AB3D0582A69D097
:100BD000632A10D0642A08D13BE0702A67D0732AB8
:100BE00013D0752A5CD0782A5CD010465A460F99EB
:100BF0009047761CD3E017F8040B8DF80000002016
:100C00008DF80100E946012003E057F8049B4FF0FE
:100C1000FF3069074FF0000501D40AE06D1C45451F
:100C20000DDA8542FADB19F805100029F6D106E045
:100C30006D1C8542FCDB19F805100029F8D12E4403
:100C400004E019F8010B5A460F9990476D1EF8D22F
:100C5000A5E00A200021CDE90801C5F302500228D1
:100C60000DD001CFC117031E71F100030DDA4FF053
:100C7000000CD0EB0C006CEB01012D2308E0FF1DF4
:100C800027F00707F7E80201EDE72B0504D52B2332
:100C90008DF8283001233BE0EB0739D02023F7E71C
:100CA0000A2000E010200021CDE9080107E0102013
:100CB000002145F00405CDE908014FF00808C5F30F
:100CC000025002280FD001CF00214FF0000A2B075D
:100CD0001FD5702A0DD0DDE908C38CF0100C5CEA3A
:100CE000030C0CD015E0FF1D27F00707F7E8020101
:100CF000EBE740228DF828204FF0010A0BE050EA84
:100D0000010306D030238DF828308DF829200223E6
:100D10009A46582A04D024A20DF120090B9209E02A
:100D200026A2F9E7DDE90823FFF72AFA0B9B9B5C73
:100D300009F8013D50EA0102F4D1ADEB0900203081
:100D40000890680701D44FF001080899884502DD32
:100D5000A8EB010000E000208046002506E00AA87C
:100D60005A46405D0F9990476D1C761C5545F6DB41
:100D700004E030205A460F999047761CB8F10001E4
:100D8000A8F10108F5DC05E019F8010B5A460F99A6
:100D90009047761C0899481E08900029F4DC641CD2
:100DA000C5E60000092801003031323334353637CA
:100DB00038396162636465660000000030313233A7
:100DC0003435363738394142434445460000000047
:100DD00070B504460D460D2C03D10120134908605F
:100DE00016E00A2C11D11148006850B90D211048A5
:100DF000FFF746FE00BF40210D48FFF7D9FD002850
:100E0000F9D000200949086002E000200749086085
:100E1000E1B20748FFF734FE00BF40210448FFF766
:100E2000C7FD0028F9D0204670BD00007C000020DE
:100E30000038014000B589B005A8FFF747FB012144
:100E40000520FFF7A5FB01218803FFF7A1FB4FF465
:100E50000070ADF814000220079000208DF81700F4
:100E60000420089005A90E48FFF73CFA4FF4E13042
:100E700001900020ADF80800ADF80A00ADF80C00B4
:100E8000ADF810000820ADF80E0001A90548FFF7E5
:100E90009DFD01210348FFF77FFD09B000BD000063
:100EA00000080140003801400024FFF7EFFDFFF784
:100EB000C1FF14A0FFF70CFE00BF09E0154A52F86D
:100EC0002410154A32F81400FFF7CEF9601CC4B2A2
:100ED000142CF3DB002410E00F4931F81400FFF765
:100EE000B3F90E4941F82400084650F82420611C4B
:100EF0000BA0FFF7EDFD601CC4B2142CECDB00BFAF
:100F0000FEE700000D0A2052544320496E69742008
:100F10000D0A00000400002054000020840000207E
:100F20000D0A20424B505F44415425643D25780D05
:100F30000A00000000000000010203040102030493
:100F40000607080901020406080A0C1020202020C8
:100F500020202020010002000400060008000A00F2
:100F60000C00100020004000800000010001000182
:100F700000010001A0860100400D0300801A060058
:100F800000350C0040420F0080841E0000093D0027
:100F9000B00F00080000002084000000F00A0008E4
:100FA000341000088400002054150000000B0008D5
:100FB0000090D00378563412795634127A5634128F
:100FC0007B5634127C5634127D5634127E563412BF
:100FD0007F5634128056341281563412825634129F
:100FE000835634128456341285563412865634127F
:100FF0008756341288563412895634128A5634125F
:101000008B5634120000040008000C00100014007D
:1010100018001C002000240028002C0030003400A0
:1010200038003C004000440048004C000000000034
:0410300000000000BC
:0400000508000149A5
:00000001FF
